{
  "_format": "hh-sol-artifact-1",
  "contractName": "Voting",
  "sourceName": "contracts/Voting.sol",
  "abi": [
    {
      "inputs": [],
      "stateMutability": "nonpayable",
      "type": "constructor"
    },
    {
      "inputs": [
        {
          "internalType": "string",
          "name": "_name",
          "type": "string"
        }
      ],
      "name": "addCandidate",
      "outputs": [],
      "stateMutability": "nonpayable",
      "type": "function"
    },
    {
      "inputs": [
        {
          "internalType": "uint256",
          "name": "",
          "type": "uint256"
        }
      ],
      "name": "candidates",
      "outputs": [
        {
          "internalType": "uint256",
          "name": "id",
          "type": "uint256"
        },
        {
          "internalType": "string",
          "name": "name",
          "type": "string"
        },
        {
          "internalType": "uint256",
          "name": "voteCount",
          "type": "uint256"
        }
      ],
      "stateMutability": "view",
      "type": "function"
    },
    {
      "inputs": [
        {
          "internalType": "uint256",
          "name": "_id",
          "type": "uint256"
        }
      ],
      "name": "getCandidate",
      "outputs": [
        {
          "internalType": "uint256",
          "name": "",
          "type": "uint256"
        },
        {
          "internalType": "string",
          "name": "",
          "type": "string"
        },
        {
          "internalType": "uint256",
          "name": "",
          "type": "uint256"
        }
      ],
      "stateMutability": "view",
      "type": "function"
    },
    {
      "inputs": [],
      "name": "getCandidateCount",
      "outputs": [
        {
          "internalType": "uint256",
          "name": "",
          "type": "uint256"
        }
      ],
      "stateMutability": "view",
      "type": "function"
    },
    {
      "inputs": [],
      "name": "owner",
      "outputs": [
        {
          "internalType": "address",
          "name": "",
          "type": "address"
        }
      ],
      "stateMutability": "view",
      "type": "function"
    },
    {
      "inputs": [
        {
          "internalType": "uint256",
          "name": "_candidateId",
          "type": "uint256"
        }
      ],
      "name": "vote",
      "outputs": [],
      "stateMutability": "nonpayable",
      "type": "function"
    },
    {
      "inputs": [
        {
          "internalType": "address",
          "name": "",
          "type": "address"
        }
      ],
      "name": "voters",
      "outputs": [
        {
          "internalType": "bool",
          "name": "",
          "type": "bool"
        }
      ],
      "stateMutability": "view",
      "type": "function"
    }
  ],
  "bytecode": "0x608060405234801561001057600080fd5b50336000806101000a81548173ffffffffffffffffffffffffffffffffffffffff021916908373ffffffffffffffffffffffffffffffffffffffff160217905550610f4d806100606000396000f3fe608060405234801561001057600080fd5b506004361061007d5760003560e01c806335b8e8201161005b57806335b8e820146100ee578063462e91ec146101205780638da5cb5b1461013c578063a3ec138d1461015a5761007d565b80630121b93f1461008257806330a563471461009e5780633477ee2e146100bc575b600080fd5b61009c6004803603810190610097919061069b565b61018a565b005b6100a66102f4565b6040516100b391906106d7565b60405180910390f35b6100d660048036038101906100d1919061069b565b610301565b6040516100e593929190610782565b60405180910390f35b6101086004803603810190610103919061069b565b6103c3565b60405161011793929190610782565b60405180910390f35b61013a600480360381019061013591906108f5565b610504565b005b61014461060d565b604051610151919061097f565b60405180910390f35b610174600480360381019061016f91906109c6565b610631565b6040516101819190610a0e565b60405180910390f35b60018054905081106101d1576040517f08c379a00000000000000000000000000000000000000000000000000000000081526004016101c890610a75565b60405180910390fd5b600260003373ffffffffffffffffffffffffffffffffffffffff1673ffffffffffffffffffffffffffffffffffffffff16815260200190815260200160002060009054906101000a900460ff161561025e576040517f08c379a000000000000000000000000000000000000000000000000000000000815260040161025590610ae1565b60405180910390fd5b6001818154811061027257610271610b01565b5b9060005260206000209060030201600201600081548092919061029490610b5f565b91905055506001600260003373ffffffffffffffffffffffffffffffffffffffff1673ffffffffffffffffffffffffffffffffffffffff16815260200190815260200160002060006101000a81548160ff02191690831515021790555050565b6000600180549050905090565b6001818154811061031157600080fd5b906000526020600020906003020160009150905080600001549080600101805461033a90610bd6565b80601f016020809104026020016040519081016040528092919081815260200182805461036690610bd6565b80156103b35780601f10610388576101008083540402835291602001916103b3565b820191906000526020600020905b81548152906001019060200180831161039657829003601f168201915b5050505050908060020154905083565b6000606060006001805490508410610410576040517f08c379a000000000000000000000000000000000000000000000000000000000815260040161040790610a75565b60405180910390fd5b60006001858154811061042657610425610b01565b5b90600052602060002090600302016040518060600160405290816000820154815260200160018201805461045990610bd6565b80601f016020809104026020016040519081016040528092919081815260200182805461048590610bd6565b80156104d25780601f106104a7576101008083540402835291602001916104d2565b820191906000526020600020905b8154815290600101906020018083116104b557829003601f168201915b505050505081526020016002820154815250509050806000015181602001518260400151935093509350509193909250565b60008054906101000a900473ffffffffffffffffffffffffffffffffffffffff1673ffffffffffffffffffffffffffffffffffffffff163373ffffffffffffffffffffffffffffffffffffffff1614610592576040517f08c379a000000000000000000000000000000000000000000000000000000000815260040161058990610c79565b60405180910390fd5b600160405180606001604052806001805490508152602001838152602001600081525090806001815401808255809150506001900390600052602060002090600302016000909190919091506000820151816000015560208201518160010190816105fd9190610e45565b5060408201518160020155505050565b60008054906101000a900473ffffffffffffffffffffffffffffffffffffffff1681565b60026020528060005260406000206000915054906101000a900460ff1681565b6000604051905090565b600080fd5b600080fd5b6000819050919050565b61067881610665565b811461068357600080fd5b50565b6000813590506106958161066f565b92915050565b6000602082840312156106b1576106b061065b565b5b60006106bf84828501610686565b91505092915050565b6106d181610665565b82525050565b60006020820190506106ec60008301846106c8565b92915050565b600081519050919050565b600082825260208201905092915050565b60005b8381101561072c578082015181840152602081019050610711565b60008484015250505050565b6000601f19601f8301169050919050565b6000610754826106f2565b61075e81856106fd565b935061076e81856020860161070e565b61077781610738565b840191505092915050565b600060608201905061079760008301866106c8565b81810360208301526107a98185610749565b90506107b860408301846106c8565b949350505050565b600080fd5b600080fd5b7f4e487b7100000000000000000000000000000000000000000000000000000000600052604160045260246000fd5b61080282610738565b810181811067ffffffffffffffff82111715610821576108206107ca565b5b80604052505050565b6000610834610651565b905061084082826107f9565b919050565b600067ffffffffffffffff8211156108605761085f6107ca565b5b61086982610738565b9050602081019050919050565b82818337600083830152505050565b600061089861089384610845565b61082a565b9050828152602081018484840111156108b4576108b36107c5565b5b6108bf848285610876565b509392505050565b600082601f8301126108dc576108db6107c0565b5b81356108ec848260208601610885565b91505092915050565b60006020828403121561090b5761090a61065b565b5b600082013567ffffffffffffffff81111561092957610928610660565b5b610935848285016108c7565b91505092915050565b600073ffffffffffffffffffffffffffffffffffffffff82169050919050565b60006109698261093e565b9050919050565b6109798161095e565b82525050565b60006020820190506109946000830184610970565b92915050565b6109a38161095e565b81146109ae57600080fd5b50565b6000813590506109c08161099a565b92915050565b6000602082840312156109dc576109db61065b565b5b60006109ea848285016109b1565b91505092915050565b60008115159050919050565b610a08816109f3565b82525050565b6000602082019050610a2360008301846109ff565b92915050565b7f496e76616c69642063616e646964617465204944000000000000000000000000600082015250565b6000610a5f6014836106fd565b9150610a6a82610a29565b602082019050919050565b60006020820190508181036000830152610a8e81610a52565b9050919050565b7f596f75206861766520616c726561647920766f74656400000000000000000000600082015250565b6000610acb6016836106fd565b9150610ad682610a95565b602082019050919050565b60006020820190508181036000830152610afa81610abe565b9050919050565b7f4e487b7100000000000000000000000000000000000000000000000000000000600052603260045260246000fd5b7f4e487b7100000000000000000000000000000000000000000000000000000000600052601160045260246000fd5b6000610b6a82610665565b91507fffffffffffffffffffffffffffffffffffffffffffffffffffffffffffffffff8203610b9c57610b9b610b30565b5b600182019050919050565b7f4e487b7100000000000000000000000000000000000000000000000000000000600052602260045260246000fd5b60006002820490506001821680610bee57607f821691505b602082108103610c0157610c00610ba7565b5b50919050565b7f4f6e6c792074686520636f6e7472616374206f776e65722063616e207065726660008201527f6f726d207468697320616374696f6e0000000000000000000000000000000000602082015250565b6000610c63602f836106fd565b9150610c6e82610c07565b604082019050919050565b60006020820190508181036000830152610c9281610c56565b9050919050565b60008190508160005260206000209050919050565b60006020601f8301049050919050565b600082821b905092915050565b600060088302610cfb7fffffffffffffffffffffffffffffffffffffffffffffffffffffffffffffffff82610cbe565b610d058683610cbe565b95508019841693508086168417925050509392505050565b6000819050919050565b6000610d42610d3d610d3884610665565b610d1d565b610665565b9050919050565b6000819050919050565b610d5c83610d27565b610d70610d6882610d49565b848454610ccb565b825550505050565b600090565b610d85610d78565b610d90818484610d53565b505050565b5b81811015610db457610da9600082610d7d565b600181019050610d96565b5050565b601f821115610df957610dca81610c99565b610dd384610cae565b81016020851015610de2578190505b610df6610dee85610cae565b830182610d95565b50505b505050565b600082821c905092915050565b6000610e1c60001984600802610dfe565b1980831691505092915050565b6000610e358383610e0b565b9150826002028217905092915050565b610e4e826106f2565b67ffffffffffffffff811115610e6757610e666107ca565b5b610e718254610bd6565b610e7c828285610db8565b600060209050601f831160018114610eaf5760008415610e9d578287015190505b610ea78582610e29565b865550610f0f565b601f198416610ebd86610c99565b60005b82811015610ee557848901518255600182019150602085019450602081019050610ec0565b86831015610f025784890151610efe601f891682610e0b565b8355505b6001600288020188555050505b50505050505056fea2646970667358221220be7eb176e21095fa7f96bc9fa82210bdb520355a43b071d4976bbd34cde18c0464736f6c63430008180033",
  "linkReferences": {},
  "deployedLinkReferences": {}
}